:020000040800F2
:1000000008770020E1010008C91400081514000851
:10001000AB140008E1120008852A00080000000067
:10002000000000000000000000000000490100087E
:10003000E3120008000000008D0100089122000872
:10004000FB010008FB010008FB010008911B0008F0
:10005000FB010008FB010008FB010008FB01000890
:10006000FB010008FB010008FB010008FB01000880
:10007000FB010008FB010008FB010008FB01000870
:10008000FB010008FB010008FB010008FB01000860
:10009000FB010008FB010008FB010008FB01000850
:1000A000FB010008FB010008FB010008FB01000840
:1000B000FB010008F5220008FB010008FB01000815
:1000C000FB010008FB010008FB010008FB01000820
:1000D000FB01000831260008FD260008FB0100088E
:1000E000FB010008FB010008FB010008FB01000800
:1000F000FB010008FB010008FB010008FB010008F0
:10010000FB010008FB010008FB010008FB010008DF
:10011000FB010008FB010008FB010008FB010008CF
:10012000FB010008FB010008FB010008FB010008BF
:10013000DFF810D000F0BEFE00480047553A000836
:10014000AFF3008008770020224B19680868B0E8F8
:10015000F00F80F30988BFF36F8F4FF0000080F33A
:1001600011884EF00D0E7047000000000648006830
:10017000006880F3088862B661B6BFF34F8FBFF3A3
:100180006F8F00DF00BF00BF08ED00E0EFF30980D4
:10019000BFF36F8F0F4B1A6820E9F00F106008B59E
:1001A0004FF0500080F31188BFF34F8FBFF36F8F74
:1001B00004F0E0FF4FF0000080F31188BDE8084034
:1001C00019680868B0E8F00F80F30988BFF36F8FF3
:1001D000704700BF54000020EFF305807047000017
:1001E0000648804706480047FEE7FEE7FEE7FEE7D1
:1001F000FEE7FEE7FEE7FEE7FEE7FEE7A5220008D2
:1002000031010008A0F14101192900D820307047C0
:1002100040EA01039B0703D009E008C9121F08C088
:10022000042AFAD203E011F8013B00F8013B521E08
:10023000F9D27047D2B201E000F8012B491EFBD27F
:1002400070470022F6E710B513460A4604461946E1
:10025000FFF7F0FF204610BD30B505462A460B4695
:1002600012F8010B13F8014B08B1A042F8D01CB1F1
:10027000002802D06D1CF1E7284630BD421C10F862
:10028000011B0029FBD1801A704710B5002200E045
:10029000521C835C8C5CA34201D1002BF8D1D8B2F4
:1002A000E1B2401A10BD034611F8012B00F8012BF2
:1002B000002AF9D11846704730B50546002003469C
:1002C00000E05B1C934205D2EC5CC85C201A01D1B3
:1002D000002CF6D130BD00000FB400B58DB010A9D0
:1002E00009900B9000914FF0FF300A9000200C9085
:1002F00005480690054807906A4609A80F9900F03E
:10030000DFFB0DB05DF814FBDD0A0008FB0A0008F6
:100310002DE9FF5F1D464FF0FF3BD5E901469146B1
:100320005F464FF00008A9697F1C01988847296A39
:10033000824688470028F6D1BAF1FF3F0CD024F45A
:10034000C064002E19DD600614D5BAF12B0F09D058
:10035000BAF12D0F0ED103E0584604B0BDE8F09F6E
:1003600044F48064A9697F1C01988847761E824600
:10037000002E02DDBAF1300F03D0B9F1000F26D004
:1003800032E0A969761E44F400747F1C0198884706
:100390008246002E05DDBAF1780F06D0BAF1580F6B
:1003A00003D0B9F1000F10D01EE0B9F1000F02D058
:1003B000B9F1100F18D1A969761E24F400747F1CBE
:1003C000019888478246102002E0082000E00A20B9
:1003D000814609E008FB0908A969761E44F4007407
:1003E0007F1C019888478246002E05DD494650460D
:1003F00000F052FB0028EDDAE96901988847A00572
:1004000002D46FF00100A8E7E00725D1600613D5FC
:10041000600502D5C8F1000000E0404629680A1DC9
:100420002A600968220501D5087015E0220701D568
:10043000088011E008600FE02868011D296000684D
:10044000210502D580F8008006E0210702D5A0F83A
:10045000008001E0C0F8008038467EE72DE9FF4FBC
:10046000087883B09946FF2805D0491C2D2804D070
:100470000024002008E000200BE00124F9E700EB55
:10048000800003EB4000491C0B78FF2BF7D104B12F
:10049000404200230293147819461D462D2C01D0AA
:1004A0002B2C04D1521C2D2C13D000240294AA46CC
:1004B0001478FF2C0FD00A25A3FB057801FB0581DA
:1004C0004FF0000C03FB0C11521CE3194AEB010125
:1004D000EEE70124EAE7814453EA010002D019F56E
:1004E000C87F06DA03980021C0E9001107B0BDE813
:1004F000F08F0025AE4E2F46DFF8B882184600F088
:1005000099FCCDE90001B9F1000002DAC9F100045B
:1005100000E004460023A74A1AEB030B42EB045AFF
:1005200012E0E00707D02A4633463846414600F03D
:10053000A0FB074688462A4633461046194600F077
:1005400098FB05460E466410002CEAD1DDE9000157
:10055000B9F1000F5A46534606DA00F0FCFB3A4662
:10056000434600F0F8FB05E000F083FB3A464346C3
:1005700000F07FFB029A0AB181F00041039AC2E9C0
:100580000001B3E72DE9FF4F1F468DB0D7E90146C3
:100590004FF0FF382E2045464FF000090B90B96907
:1005A0006D1C0E988847396A824688470028F6D124
:1005B000BAF1FF3F0AD024F4D064002E11DDBAF165
:1005C0002B0F08D0BAF12D0F0BD102E0404611B02D
:1005D0008DE744F48064B9696D1C0E9888478246A3
:1005E000761E6946600501D52D2000E02B208DF890
:1005F000000001F1010B0DF1200809E0B9696D1C43
:100600000E98884782460F9844F40074761E056061
:10061000002E02DDBAF1300FF0D00B998A453ED1A1
:1006200044F0800406E00F99681CA9F1010944F424
:1006300000740860B9696D1C761E0E988847824662
:100640003028F0D02BE00B998A4505D1200603D441
:1006500044F08004761E18E0504602F0CDFC08B34A
:100660000DF11301761E44F400748B4508D2AAF1F3
:1006700030000BF8010B200607D5A9F1010003E0BB
:10068000200602D409F101008146A00502D50F9988
:10069000681C0860B9696D1C0E9888478246002E58
:1006A000D1DC53E0002E51DDBAF1650F02D0BAF172
:1006B000450F4BD1A00549D5B9696D1C24F4407490
:1006C000761E0E9888478246002E0CDD2B2804D01B
:1006D000BAF12D0F07D144F48074B9696D1C0E98DE
:1006E00088478246761EE00501D52D2100E02B21AA
:1006F00008F8011BCDF82C8021E00DF12901761EB0
:1007000044F4007488450CD2AAF1300010F0FF00C8
:1007100088F8000002D10B99884509D908F1010831
:1007200006E0E00501D5244801E042F20F70814661
:10073000B9696D1C0E98884782460F980560002E97
:1007400004DD504602F058FC0028D6D1F9690E9815
:100750008847FF208BF8000088F8000000200690F2
:1007600007904B466A4608A906A8FFF777FEA00542
:1007700002D46FF001002AE714F0240F0AD0E0073A
:1007800014D1DDE906123868031D3B600068C0E93A
:1007900000120BE0DDE9060100F070FB0146E00706
:1007A00004D13868021D3A600068016028460EE7EF
:1007B000000014400000F03FF1D8FFFF2DE9FE4F8C
:1007C000804681EA0300C00F0C46009021F00041F2
:1007D00023F00045B8EB0200A94105D2404621466E
:1007E00090461C460B46024623F00040104347D07B
:1007F000270DC7F30A00C3F30A510290401A019073
:1008000040286BDAC3F3130040F4801B0098924633
:1008100020B10023D2EB030A63EB0B0B019859467E
:10082000C0F14002504600F006F906460D4650461B
:100830005946019A00F01EF910EB080061410024AE
:1008400087EA115284EAE7731A4340D0009A62B3F0
:10085000019A012A4FEA075215DC001B61EB0201E5
:100860004FF0004202EA0752CDE90042001C41F578
:10087000801132462B4600F0AEF903B0BDE8F08F90
:1008800040462146F9E7001B61EB0201001C41F5DF
:10089000801300185B412018A2F5001747EB0301F5
:1008A00040EAD570B6196D4111E06D084FEA360681
:1008B00045EAC0754FEA0752001B61EB0201001CBC
:1008C00041F5801149084FEA300000195141324684
:1008D0002B4603B0BDE8F04F00F06EB9009801223E
:1008E00040000023D0EB020263EBE0730098214646
:1008F0004FEAE074B8EB000061EB0401E9E783F034
:1009000000435BE781F0004158E770B5C1F30A523C
:1009100001F000450024C1F3130140F2FF3341F41C
:1009200080119A4201DA002070BD40F233439A42AE
:10093000A2F2334203DC524200F08CF800E0904017
:100940002C43F1D0404270BD30B5041E71F100045B
:1009500004DB4FF00044404264EB0101141E73F1CC
:10096000000405DB1C464FF00043524263EB0403D6
:100970008B4208BF824230BD30B5041E71F10004C5
:1009800004DB4FF00044404264EB0101141E73F19C
:10099000000405DB1C464FF00043524263EB0403A6
:1009A000994208BF904230BD30B50B460146002049
:1009B0002022012409E021FA02F59D4205D303FA21
:1009C00002F5491B04FA02F52844151EA2F10102A2
:1009D000F1DC30BD2DE9F05F0546002092469B46D4
:1009E00088460646814640241BE028464146474645
:1009F000224600F02FF853465A46C01A914110D3B0
:100A000011461846224600F016F82D1A67EB010829
:100A10004F4622460120002100F00DF817EB000997
:100A20004E41201EA4F10104DFDC484631462A462F
:100A30004346BDE8F09F202A04DB203A00FA02F189
:100A4000002070479140C2F1200320FA03F31943BC
:100A500090407047202A04DB203A21FA02F000215E
:100A6000704721FA02F3D040C2F1200291400843BE
:100A700019467047202A06DBCB17203A41FA02F0CC
:100A800043EAE07306E041FA02F3D040C2F12002EB
:100A900091400843194670473A2800D2303820F078
:100AA0002002412A01D3A2F13700884201D34FF03E
:100AB000FF30704702681144137801601846704790
:100AC000D16004495161044911620021116111464C
:100AD00000F008BAB50A0008D90E0008426842B111
:100AE000016811F8013B23B1521EC0E900121846FB
:100AF00070470121C160881E704742685AB1C368BF
:100B0000016843B983688B4205D0491E521CC0E975
:100B10000012002070474FF0FF3070470FB40023E1
:100B200000B589B00CA900910B996FF00042CB6021
:100B30001E4B06931E4B07930423CDE901321D4A39
:100B4000089202466B460020FFF71CFD09B05DF8D5
:100B500014FB70B586B006464FF0FF300091CDE92A
:100B60000101002015460C4604903246694604A84F
:100B7000FFF7D4FF02460498211825B108B10846B2
:100B800000E020462860049800280DD0002A02DDED
:100B90000098884208D0081B0094CDE90104324631
:100BA000694604A8FFF7BAFF06B070BDDD0A000869
:100BB000FB0A0008D90E000810B5141E73F10004DA
:100BC00008DA401C41F1000192185B411A4301D13F
:100BD00020F0010010BD2DE9F04D92469B4611B169
:100BE000B1FA81F202E0B0FA80F220329046FFF7CB
:100BF00022FF04460F4640EA0A0041EA0B01534631
:100C00005A46084313D0114653EA010019D0C8F1DF
:100C100040025046FFF71EFF05460E465046594615
:100C20004246FFF708FF084305D0012004E02046B4
:100C30003946BDE8F08D0020054346EAE0762C43B6
:100C400037430A986305E40AA0EB08000022FD0A76
:100C500044EA47540A3002D500200146E9E701057D
:100C600010196941DDE9084500196941BDE8F04DF9
:100C7000A2E72DE9FE4F81EA030404F0004421F0CD
:100C8000004100944FF0000B23F0004350EA0104B0
:100C90005ED052EA03045BD0C3F30A54C1F30A5591
:100CA0002C44A4F2F3340194A0FB0254C1F31301C9
:100CB00041F48011C3F3130343F4801301FB024496
:100CC00000FB034E840A970A44EA815447EA83579B
:100CD000A4FB076802958D0A05FB07854FEA932C54
:100CE00004FB0C542705029D4FEA065847EA1637C5
:100CF000B5EB08056EEB070C870E920E47EA8117DD
:100D000042EA8312A7FB0201B6EB0B0164EB00047D
:100D10002B0D43EA0C335E1844EB1C50DA46514667
:100D2000E7FB0201C5F313044FEA0B3343EA145304
:100D30004FEA0432019C43EA0603A4F10C04029436
:100D4000009CCDE900B4FFF746FF03B0BDE8F08F8B
:100D500000200146F9E72DE9F04D81EA030404F093
:100D6000004B21F0004514464FF0000A23F00041EB
:100D700050EA050220D054EA01021DD0C5F30A57FB
:100D80000246C5F31303C1F31300C1F30A5640F43E
:100D9000801543F48013A7EB0608101BD64608F213
:100DA000FD3873EB050002D308F1010801E0921849
:100DB0005B41B8F1000F03DA00200146BDE8F08D79
:100DC00000204FF48011064684460EE0171B73EB9B
:100DD000050705D3121B63EB050306434CEA010C20
:100DE00049084FEA300092185B4150EA0107EDD103
:100DF00052EA030012D082EA040083EA05010843A4
:100E000005D0101BAB4106D20122002306E00022D0
:100E10004FF0004302E06FF0010253101AEB06009E
:100E20004CEB085110EB0A0041EB0B01BDE8F04D13
:100E3000FFF7C2BE0EB540F2334202920022CDE966
:100E400000221346FFF7C7FE03B000BDC1F30A52EC
:100E5000C1F3130140F2FF3341F480119A4202DAE8
:100E600000200146704740F233439A42A2F23342D7
:100E700002DC5242FFF7EEBDFFF7DDBD01F000439B
:100E800030B421F0004150EA010206D00A0DA2F56B
:100E90006072C1F31301002A02DC30BC00207047ED
:100EA000440F44EAC104C100E01830BC00EBC2505A
:100EB00000F0B0B9064C074D06E0E06840F00103D1
:100EC00094E8070098471034AC42F6D3FFF734F9A2
:100ED000005F0008205F0008C0B24FF4F05100F03E
:100EE000D1B900002DE9F34F8BB04FF0000801F1AC
:100EF0000C000C464FF0010B46460DF1080A01901C
:100F00006269012101989047051E2DD0252D2CD016
:100F1000216A8847C0B16269012101989047216A1E
:100F200088470028F7D1411E62690198904700E088
:100F3000761CA1690B988847216A88470028F7D159
:100F4000E1690B988847DBE7A1690B98884707465A
:100F5000A84201D1761CD3E7E1690B9888477F1C32
:100F600002D1B8F1000F6FD047E1002762693D461A
:100F70003946019890472A2804D1626901210198D5
:100F800090470125DFF88892626901210198904716
:100F9000A0F130010A290AD24F45E5DC07EB8701B1
:100FA00000EB4107303FDFD445F01005ECE7E906E0
:100FB00001D46FF000476C280AD04C2814D0682860
:100FC00015D06A280DD074281CD07A281AD01DE0BC
:100FD00062690121019890476C2802D045F0040510
:100FE00014E045F002050DE045F020050AE06269D5
:100FF000012101989047682802D045F0080505E0D6
:1010000045F400656269012101989047C4E90157E0
:1010100065283DD019DC58287AD00CDC452837D01B
:1010200004DC252826D0412831D131E046282FD0B4
:1010300047282CD12CE05B2877D0612828D0632862
:101040007CD0642823D15AE0D1E06F2848D008DC56
:1010500066281DD067281BD0692821D06E2816D19C
:1010600027E0702845D0732868D0752847D07828A5
:101070000DD14DE0A1690B988847054625283FF41E
:1010800069AFE1690B9888476D1C3FF46AAFB4E023
:1010900023466A466FF001000B99FFF773FA9FE051
:1010A00045F040006060A80723464FF0000236D4A8
:1010B0003EE0E8077FF447AF2068011D216000682B
:1010C000290501D506701BE7290701D5068017E71A
:1010D000A90703D5F117C0E9006111E706600FE722
:1010E00045F040006060A80723464FF0080216D480
:1010F0001EE040F60E0125EA0100606016E045F0B2
:1011000040006060A80723464FF00A0207D40FE0B2
:1011100045F040006060A80708D5234610226FF014
:1011200001000B99AFF300805AE007E0234610223C
:101130006FF001000B99FFF7EBF851E04FF0000959
:101140004F464B46632802D05B2807D041E0207908
:10115000C00601D40120A06001273AE062690121A4
:10116000019890475E2805D14FF001096269494610
:1011700001989047216939B900210A46534643F83E
:101180002120491C0829FADBB0B3216969B9C117CC
:1011900000EBD16253110AEB830122F01F02821A85
:1011A00001200B68904003430B60626901210198A4
:1011B00090475D28E8D1B9F1000F09D000205146D1
:1011C00051F82020D24341F82020401C0828F7DBAA
:1011D00002AB224600976FF001000B99AFF300803D
:1011E00000280CDA401C08D1BBF1000F05D04FF0ED
:1011F000FF300DB0BDE8F08FFFE74046F9E7E907A3
:1012000001D108F1010806444FF0000B78E6000018
:10121000CCCCCC0C0029A8BF7047401C490008BFAB
:1012200020F00100704710B4B0FA80FC00FA0CF016
:1012300050EA010404BF10BC704749B1CCF120044E
:1012400021FA04F411FA0CF118BF012121430843DB
:10125000A3EB0C01CB1D4FEA00614FEA102042BF07
:10126000002010BC704700EBC35010440029A4BFFD
:1012700010BC7047401C490008BF20F0010010BCA2
:10128000704700007F2801D9002208E0064A02EBDF
:101290005002C007127800D1120902F00F0201209B
:1012A0009040084070470000045E000810B501201F
:1012B00000F020FBBDE81040002000F01BBB000048
:1012C00008B5024908440090008808BD006C004041
:1012D00008B5024A10440090016008BD006C00404F
:1012E000FEE7704710B54FF4977422460021094875
:1012F00001F020FC074800780A2803D92146054858
:10130000FEF79FFF04480021016041608160C160D9
:1013100010BD0000FE100020E4000020F0B5CC78E5
:10132000002204F00F03E40601D58C7823430C78E7
:101330004FF00F0C14F0FF0F4FF0010E1BD005689B
:101340000E880EFA02F42640A64210D196000CFA3E
:1013500006F725EA070703FA06F5CE783D43282E5F
:1013600002D0482E02D002E0446100E00461521C29
:10137000082AE5D305600A88FF2A1CD944680022A0
:1013800002F108060EFA06F50E882E40AE420ED186
:1013900096000CFA06F7BC4303FA06F7CE783C43F6
:1013A000282E00D14561CE78482E00D10561521C0F
:1013B000082AE5D34460F0BDF0B5144C002801DAEA
:1013C000E36900E06368450D2E0185B2C0F3015763
:1013D000B540C0F30342032F05D0C6020AD5032649
:1013E0009640B34307E023F07062636823F07063B4
:1013F000636002E0AB4343F0706201B12A4300280E
:1014000001DAE261F0BD6260F0BD00000000014061
:1014100001617047FEE7000002494CF6CC400860CD
:10142000704700000030004070B504460D4645F29C
:10143000555000F021F8204600F012F8284600F040
:1014400015F800F005F8BDE87040FFF7E5BF0000B3
:1014500002494AF6AA2008607047000000300040A8
:101460000149486070470000003000400149886031
:1014700070470000003000400149086070470000DC
:101480000030004081070CD16421B0FBF1F201FB78
:10149000120141B94FF4C871B0FBF1F201FB120027
:1014A00008B10020704701207047FEE7C0EB001034
:1014B00000EB80004FF6FF7101EA8001014800F067
:1014C000DBBF0000000400407047000030B50F2370
:1014D000C27801780125F2B1144A126801F1E021C5
:1014E00002F4E062C2F5E062120AC2F10404D340E1
:1014F0004278A24084781C401443220181F80024E1
:10150000007800F01F018D404009800000F1E020CC
:10151000C0F8005130BD01F01F008540480980002F
:1015200000F1E020C0F8805130BD00000CED00E07B
:101530000249084302490860704700000000FA05AC
:101540000CED00E0014908627047000000000E4207
:101550002DE9F04F8DB002F02DF9050007D09AA1CA
:1015600002F01AF90646C068102809D028E102F0F6
:101570000BF9014696A001F007FC0DB0BDE8F08F15
:1015800098A0316901F000FC99A13069FEF764FE72
:10159000984C00287ED098A1284602F0FDF880469D
:1015A00098A1284602F0F8F8834698A1284602F050
:1015B000F3F8064698A1284602F0EEF8074698A1EF
:1015C000284602F0E9F8814699A1284602F0E4F89D
:1015D000824699A1284602F0DFF8009036693F69FB
:1015E00005AB04AA97A13046FEF776FE07AB06AA24
:1015F00094A13846FEF770FE20780A2873D2C0EB1B
:10160000001004EB400098F81410817520789BF8C6
:101610001410C0EB001004EB4000C1752078314677
:10162000C0EB001004EB4000801CFEF73CFE20786D
:101630003946C0EB001004EB40000C30FEF733FEDF
:10164000207899F81410C0EB001004EB40000177EB
:1016500020789AF81410C0EB001004EB400041779A
:101660000098818A2078C0EB001004EB4000C18311
:1016700020780499C0EB001004EB4000017620783C
:101680000599C0EB001004EB400041762078C0EBD8
:10169000001000E02BE004EB4000069981762078F2
:1016A0000799C0EB001004EB4000C1762078C0EB36
:1016B000001004EB400000F10C01C68B437F027F59
:1016C0008DE84E00831CC27D817D604801F05CFB8B
:1016D00020784FF49772401C20700021204601F0C2
:1016E0008BFA6DE0FFE75AA001F04EFB68E05EA1C7
:1016F0003069FEF7B1FD98B35CA1284602F04CF8C2
:101700000646C068082803D15AA0716901F03CFB65
:10171000367D10E0C6EB061004EB400303F1200712
:1017200039461E22981CFEF773FD38461E21FEF72F
:1017300088FD761CF6B22078B042EBD810F0FF009E
:1017400001D0401E20704FF497720021294801F00B
:1017500053FA4B480021016041608160C1602FE075
:10176000FFE748A13069FEF777FD48B349A1284655
:1017700002F012F804694AA1284602F00DF8066941
:1017800008A8009003AB02AA48A12046FEF7A4FDDA
:101790000BA800900AAB09AA47A13046FEF79CFDB2
:1017A0000B980A99C0B2C9B2CDE900100998C3B22A
:1017B0000898C2B20398C1B2029880B200F078FAD9
:1017C000284601F0BDFFD8E6617264657200000032
:1017D0004A534F4EB8F1CABDB4EDCEF33A2573204B
:1017E0000D0A0000C0E0D0CD3A2573200D0A00009C
:1017F00061646400FE1000207765656B737461722C
:10180000740000007765656B656E640073746172C7
:101810007474696D65000000656E6474696D6500BF
:10182000696E74657276616C5F74696D6500000045
:101830006765617273000000776F726B74696D6524
:101840000000000025643A2564000000A05E000846
:10185000C9E8D6C3C2FAC1CBA3ACC7EBC7E5B3FD99
:10186000BEC9C9E8D6C3000064656C0073657269BF
:10187000616C0000D0F2BAC53A2564200D0A000060
:10188000E40000207365745F7274635F74696D6552
:10189000000000007365745F6461746500000000FF
:1018A0007365745F74696D650000000025642D2503
:1018B000642D25640000000025643A25643A2564FF
:1018C00000000000044A0029D16901D0014300E072
:1018D0008143D1617047000000100240044A002992
:1018E000916901D0014300E081439161704700009C
:1018F0000010024001490860704700004004424265
:1019000030B5204A5168204B11F00C0103D0042956
:1019100001D0082901D0036012E05168536801F436
:1019200070114FF0020413F4803F04EB914102D098
:1019300053689B0301D5154B00E0134B59430160DD
:1019400051680F2303EA1111114B5C5C0168E140FF
:1019500041605468072505EA14241C5D21FA04F44B
:101960008460546805EAD4241B5DD940C160526884
:10197000032303EA9232064B1B1F9A5CB1FBF2F180
:10198000016130BD0010024000127A0000093D00E4
:1019900044000020034600205909094A01290AD0C1
:1019A00002290AD0516A03F01F02012393400B421F
:1019B00000D0012070471168F5E7116AF3E70000D5
:1019C000001002400649002281F8202081F82020E2
:1019D000012802D0042802D1052081F82000704798
:1019E0000010024001490860704700003C04424278
:1019F00002490A6A02430A6270470000001002406E
:101A000002490A8882430A80704700000428004087
:101A10000248018841F0100101807047042800400D
:101A20000248018821F0100101807047042800401D
:101A30002DE9F04700F06AF8DFF8C0800546B0FBFA
:101A4000F8F32F482F4E018899422FD0038040F29F
:101A5000B2744FF4B7774FF4B6790FE02046FFF732
:101A600011FD38B1BB4202D3A3F5B77304E0641C87
:101A7000A4B205E0A3F26D13641CA4B24B45EDD8EB
:101A8000B4800024204F0BE0B088FFF7FBFC08B1C6
:101A9000012C2ED0385D984204D81B1A641CA4B2C5
:101AA0001C2BF1D2641CB4715B1CF371B5FBF8F113
:101AB00008FB11504FF46161B0FBF1F23270B0FBE2
:101AC000F1F201FB12033C22B3FBF2F37370B0FBA3
:101AD000F1F301FB1300B0FBF2F102FB1100B07057
:101AE000F279B179B08800F02BF830720020BDE8AF
:101AF000F0871D2BD6D31D3BD0E70000805101009D
:101B000018000020F4000020F85D00080348008859
:101B10000249091F098840EA014070471C2800401B
:101B200006490988C2B21140044A121F12880242B3
:101B300002D009B1012070470020704704280040FE
:101B400030B56423B0FBF3F4B0FBF3F5E4B203FB70
:101B50001500132C01D96430C0B200EB90030724A8
:101B6000B3FBF4F504FB1533084D1A440D4480070C
:101B700015F8015C2A4492B203D1032901D2521E06
:101B800092B2B2FBF4F004FB102030BDEC5D000813
:101B900010B50120FFF7C4FF08B1FFF749FF02208D
:101BA000FFF7BEFF20B10220FFF72AFFFFF740FF3B
:101BB0000520FFF725FFBDE8104000F0FFB800004A
:101BC000044A0029118801D0014300E081431180BB
:101BD00070470000002800407CB5002401214FF030
:101BE000C050FFF76FFE0120FFF7ACFC0420FFF7A9
:101BF00067FB45F250060025B0423FD0FFF756FB89
:101C00000120FFF7DFFE04E0641CE4B20A2001F0CB
:101C100079FE4120FFF7BEFE18B1FA2C04D3012053
:101C20007CBDFA2CF0D3FAE74FF48070FFF7E0FEAA
:101C30000120FFF7D7FE00F0C1F800F0C7F801213E
:101C40000846FFF7BDFF00F0B9F8FFF7E1FE47F6E1
:101C5000FF7000F0A3F800F0B1F81420CDE9000502
:101C600009231A460B2140F2E67000F021F8FFF735
:101C7000D7FE31460420FFF72BFB07E000F0A6F863
:101C800001210846FFF79CFF00F098F803208DF82B
:101C900000008DF801508DF8025001208DF80300EE
:101CA0006846FFF713FCFFF7C3FE00207CBD000071
:101CB0002DE9F05F9A4605460023A0F2B270DDF8E8
:101CC00028B091468846822802D30120BDE8F09FC3
:101CD00040F2B274254E264F08E02046FFF7D2FBB3
:101CE00008B1334400E03B44641CA4B2AC42F4D3DA
:101CF000A8F10100C6B200241E4FDFF87C800EE080
:101D0000385D40F2A321484303EBC0132846FFF798
:101D1000B9FB10B1012C00D14344641CA4B2B442FD
:101D2000EED340F2A32109FB01F0134903EBC010ED
:101D300049420144CAEB4A12C2EB0A2001EB0011EE
:101D4000CBEB0B1001EB80000B99441801214FF0F5
:101D5000C050FFF7B7FD0120FFF7F4FB204600F06D
:101D60000DF800F02BF80020B0E700000085E2013C
:101D70008033E101F85D00088051010000B50246A2
:101D8000FFF746FE0449100C0880081D02805DF82C
:101D900004EBFFF745BE00001828004000B50246DE
:101DA000FFF736FE0449C2F303400880081D028095
:101DB0005DF804EBFFF734BE0828004002480188B4
:101DC0008906FCD5704700000428004004480188BB
:101DD00021F00801018001880907FCD57047000047
:101DE000042800400EB5674E654D4FF001090027ED
:101DF000A6F11004B278717830788DE80700F37995
:101E0000B279B18860A000F0BFFF207A10B101283C
:101E10003ED096E0E77295F8008030E0327AC1EB70
:101E2000011005EB4000837D9A4226D3327AC37DB0
:101E30009A4222D87378327890F819C0C2EB021215
:101E400003EB8203027EC2EB02120CEB820293428E
:101E500013D373783278C2EB021203EB8202C37E93
:101E6000807EC0EB001003EB8000824205D884F82E
:101E700008904DA000F088FF04E0491CE172E17A6F
:101E80004145CBD3217A01295BD0FF21E17258E093
:101E9000317AE07AC0EB001005EB4000827D914280
:101EA00003D2317AC27D91421BD872783178437E59
:101EB000C1EB011102EB8102017EC1EB011103EBC9
:101EC00081018A420FD271783278C37EC2EB02124E
:101ED00001EB8202817EC1EB011103EB81018A4299
:101EE00001D927722DE0617A21B101290CD0022994
:101EF0001BD026E084F80990A17A491CA172407F8A
:101F0000FFF7D4FA2EA00AE0A17AC08B814209D350
:101F100002206072A7720020FFF7C8FA2AA000F022
:101F200033FF0EE0491CA1720BE0A1893C22B1FBFA
:101F3000F2F2007F824202D36772A78101E0491C5E
:101F4000A181307A082809D2DFE800F008040610E1
:101F50001214161820A000E021A0206022A000F09A
:101F600013FF4FF47A7002F053FF43E71FA0F4E72A
:101F700020A0F2E721A0F0E722A0EEE723A0ECE703
:101F8000FE100020F4000020416C61726D20546945
:101F90006D653A25642D25642D25642025643A2538
:101FA000643A25640A000000D4DAB5DA2564B8F68C
:101FB000B9A4D7F7D7E9B9A4D7F70D0A00000000F4
:101FC000B9A4D7F7210D0A00BDE1CAF8B9A4D7F723
:101FD000A3A10D0A00000000D0C7C6DAD2BB0000E2
:101FE000D0C7C6DAB6FE00000D0A0000D0C7C6DAB8
:101FF000C8FD0000D0C7C6DACBC40000D0C7C6DA1F
:10200000CEE50000D0C7C6DAC1F90000D0C7C6DAF5
:10201000C8D500001CB505490520CDE90001002305
:10202000802203A1054803F059FC1CBD1C000020C0
:102030005254435F7461736B00000000E51D00089B
:1020400010B586B0012141F20400FFF747FCE02003
:10205000ADF8140018208DF817000320194C8DF8E6
:10206000160005A92046FFF759F9E0212046FFF7A1
:10207000CFF90020ADF800004FF48271ADF80210E6
:10208000ADF804000221ADF806100121ADF80810EA
:102090004902ADF80A100821ADF80C10ADF80E0099
:1020A0000720094CADF810006946204600F059F8A9
:1020B0000121204600F040F8FF2000F007F806B0AC
:1020C00010BD0000000801400030014070B5064618
:1020D0000024114D03E0641CE4B2C82C0FD8022187
:1020E000284600F033F80028F5D03146284600F0A5
:1020F00036F8002405E0641CE4B2C82C01D90020A5
:1021000070BD0121284600F021F80028F3D02846B0
:1021100000F023F8C0B270BD003001400146054810
:10212000028822F03802028002880A4302800121DC
:1021300000F002B8003001400029018802D041F0CF
:10214000400101E021F0400101807047024600207B
:1021500012890A4200D0012070478089704781812E
:10216000704730B502884C8802F441530A88CD8804
:1021700022438C882C4322430C8922434C892243DE
:102180008C892243CC8922431A430280828B22F419
:1021900000628283098A018230BD00000CB50022F2
:1021A000264800920192016841F4803101604FF4A9
:1021B000A063016801F4003101910099491C00916C
:1021C000019911B900999942F3D10168890333D576
:1021D000012101911A490A6842F010020A600A6856
:1021E00022F003020A600A6842F002020A604168B3
:1021F000416041684160416841F4806141604168EB
:1022000021F47C114160416841F4E81141600168AA
:1022100041F08071016001688901FCD5416821F0BD
:1022200003014160416841F0020141604168C1F32E
:1022300081010229FAD10CBD01920CBD00100240AF
:10224000002002401CB507490120CDE90001002310
:10225000802205A1074803F041FBBDE81C4002F0C5
:1022600037BF00000000002073746172745F7461F6
:10227000736B0000E94900084FF0E0210428086969
:1022800003D020F004000861704740F00400FAE732
:1022900010B503F04FFB012803D0BDE8104002F059
:1022A000E3BF10BD0F4810B5016841F001010160A6
:1022B00041680D4A1140416001680C4A11400160BB
:1022C000016821F480210160416821F4FE01416030
:1022D0004FF41F018160FFF761FF05494FF0006077
:1022E000086010BD001002400000FFF8FFFFF6FE7E
:1022F00008ED00E010B5074C0121204600F065F81C
:10230000002805D02046BDE81040012100F050B85B
:1023100010BD00000004004030B50D46044689B0F1
:1023200001210220FFF7CEFA01210920FFF7D6FA9A
:1023300001211C48FFF740F82022ADF81C2018228C
:102340008DF81F2003208DF81E0007A91648FEF700
:10235000E5FFADF804400020ADF80050134CADF897
:102360000600ADF802006946204600F087F87021AB
:10237000ADF80C100121ADF80E100221ADF81410CB
:1023800003A9204600F02EF80821204600F06AF844
:102390000121204600F00FF80021204600F06CF8E3
:1023A00009B030BD00081A00000C014000040040D4
:1023B000C943018270470029018802D041F0010120
:1023C00001E021F001010180704702460020138ADC
:1023D00092890B4202EA010202D0002A00D00120B9
:1023E0007047000070B5028C22F010020284028C4B
:1023F0008388048B0D8824F4E6464FF6FF7404EAC4
:10240000052535430E8922F0200204EA06161643FC
:102410004A8804EA02123243104EB04202D0104EF3
:10242000B04215D122F080064A8923F4406304EAC1
:102430000212324322F040068A8804EA0212324332
:102440008E8904EA86061E43CB8904EA830333435C
:1024500083800583C9880187028470BD002C0140F8
:1024600000340140028B4FF6FF7322F4006203EA4E
:1024700001211143018370470187704730B50288FD
:102480001B4C1C4DA0420DD0A8420BD0B0F1804F88
:1024900008D0194B984205D0184B984202D0184BDF
:1024A000984203D122F070034A881A43154B984290
:1024B00006D0154B984203D022F44073CA881A43C1
:1024C00002808A8882850A880285A0420AD0A842B2
:1024D00008D00E4A904205D00D4A904202D00D4AD3
:1024E000904201D1097A01860121818230BD00002C
:1024F000002C01400034014000040040000800406E
:10250000000C00400010004000140040004001405A
:10251000004401400048014086B00020364E374D4F
:10252000DFF8DC9004904FF080570590A8680028F1
:1025300038D0C82000F066FC8246C821FDF781FE35
:1025400004AA5146A86803F02BF9012827D12DA130
:102550005046FDF781FEF8B1002414E0C4EB0410EE
:1025600006EB400000F10C01B0F81EC090F81D8091
:10257000027F8DE80611831CC27D817D244800F016
:1025800003FC641CE4B23078A042E7D82148C17A49
:1025900021A000F0F9FB02E05046FEF7D9FF5046BB
:1025A00000F002FC049828B1C9F80070BFF34F8F07
:1025B000BFF36F8FE86898B1C82000F023FC044691
:1025C000C821FDF73EFE05AA2146E86803F0E8F8B9
:1025D000012802D1204600F07FF8204600F0E4FBFD
:1025E000059828B1C9F80070BFF34F8FBFF36F8F04
:1025F000C82002F00DFC99E7FE1000202C000020FE
:1026000004ED00E0636865616B5F7461736B0000EB
:10261000445E0008E4000020D4DAB5DA2564B8F698
:10262000B9A4D7F7D7E9B9A4D7F70D0A000000007D
:10263000F8B51D4D40F225563146284600F0B9F850
:102640001A4C58B1284600F041F91949228888549B
:10265000521C22803146284600F094F840F2244172
:10266000284600F0A6F800281CD0A068002819D041
:1026700000236A460E4903F023F800202080C82179
:102680000B48FDF7DEFD28880748001D00880098EC
:10269000002807D007494FF080500860BFF34F8FE4
:1026A000BFF36F8FF8BD0000003801402C00002000
:1026B0002C12002004ED00E010B5064C0146204627
:1026C00000F008F94021204600F06CF80128F9D10B
:1026D00010BD00000038014010B5044614F8010B8D
:1026E000FFF7EAFF20780028F8D10D20FFF7E4FF7C
:1026F000BDE810400A20FFF7DFBF0000F8B51D4D10
:1027000040F225563146284600F053F81A4C58B18D
:10271000284600F0DBF8194962888854521C628010
:102720003146284600F02EF840F22441284600F0B9
:1027300040F800281CD0E068002819D000236A4621
:102740000E4902F0BDFF00206080C8210B48FDF754
:1027500078FD28880748001D00880098002807D0C9
:1027600007494FF080500860BFF34F8FBFF36F8F62
:10277000F8BD0000004400402C000020F4120020AE
:1027800004ED00E00A0A01219140C943018070472D
:102790000029818902D041F4005101E021F4005167
:1027A000818170470246002012880A4200D0012031
:1027B000704770B501F01F0501260024C1F34213D4
:1027C00006FA05F2012B0FD0022B0FD0838A4FEAB5
:1027D00011210088134206FA01F600EA060001D032
:1027E00000B10124204670BD8389F0E7038AEEE73B
:1027F00010B5C1F3421301F01F040121A140012BC8
:1028000007D0022B07D01430002A026805D00A43F3
:1028100004E00C30F8E71030F6E78A43026010BDA0
:1028200030B50446008A85B00D464CF6FF7108406D
:10283000E98801432182A0894EF6F3110840A98856
:102840002A8911436A8902431143A181A08A4FF664
:10285000FF410840A9890143A1826846FFF750F86B
:102860001948844201D1039800E00298A189090423
:1028700000EBC00101EB0010296801D5490000E020
:102880008900B0FBF1F06422B0FBF2F109010B0901
:102890006FF018056B4300EB8300A3891D044FF014
:1028A000320306D503EBC000B0FBF2F000F00700E6
:1028B00005E003EB0010B0FBF2F000F00F0008435E
:1028C000208105B030BD0000003801408088C0F391
:1028D00008007047C1F308018180704730B5054694
:1028E00087B0012144F20400FEF7F8FF4FF40070B6
:1028F000ADF8100003208DF812001820214C8DF83F
:10290000130004A92046FEF709FD2115ADF81010AB
:1029100004208DF8130004A92046FEF7FFFC2520B3
:102920008DF8140007208DF8150000248DF816404E
:1029300001208DF8170005A8FEF7C8FDADF804408A
:10294000ADF80640ADF80840ADF80C400C200E4C38
:10295000ADF80A00009569462046FFF761FF0122A5
:1029600040F225512046FFF743FF012240F2244167
:102970002046FFF73DFF01212046FFF709FF07B082
:1029800030BD00000008014000380140F0B50546A8
:10299000012187B04804FEF795FF01210420FEF7CE
:1029A0009DFF0426ADF8106003208DF8120018205A
:1029B000204F8DF8130004A93846FEF7AFFC082419
:1029C000ADF810408DF8136004A93846FEF7A6FC58
:1029D00026208DF814008DF8154001218DF8161071
:1029E0008DF8171005A8FEF771FD0020ADF8040062
:1029F000ADF80600ADF80800ADF80C000C200E4C48
:102A0000ADF80A00009569462046FFF709FF01224C
:102A100040F225512046FFF7EBFE012240F224410F
:102A20002046FFF7E5FE01212046FFF7B1FE07B083
:102A3000F0BD000000080140004400401CB5002229
:102A4000C821042002F026FC094C0022C821A06005
:102A5000042002F01FFCE060211D0620CDE90001EA
:102A60000023802203A1064802F038FF1CBD0000AD
:102A70002C000020554152545F7461736B000000BC
:102A800019250008FEE7000070B50446014611A0B4
:102A900000F07AF9240300F0FDF800F0A7F80F4DDC
:102AA0000020C5F89001202005F5C875FFF70EFB42
:102AB000C4F30740FFF70AFBC4F30720FFF706FB48
:102AC000E0B2FFF703FB01202860BDE8704000F092
:102AD0008DB8000066653A25780D0A000000214295
:102AE00038B501210420FEF7F9FE1020ADF80000F2
:102AF0008DF8030003200C4C8DF802006946204637
:102B0000FEF70CFC10212046FEF782FC074901204D
:102B1000C1F89001FFF794FA3820FFF7FFFA00F0B0
:102B200031F80349088038BD000801400000214207
:102B3000240000202DE9F041114F064600201546E3
:102B40000C46C7F890010320FFF7C0FAC4F3074012
:102B5000FFF7BCFAC4F30720FFF7B8FAE0B2FFF7BB
:102B6000B5FA002405E0FF20FFF7B0FA3055641CE9
:102B7000A4B2AC42F7D30120C7F89001BDE8F081C0
:102B80000000214270B50F4D0024C5F890419020FF
:102B900005F5C875FFF79AFA0020FFF797FA0020AD
:102BA000FFF794FA0020FFF791FAFF20FFF78EFA63
:102BB00044EA0024FF20FFF789FA2043012129601D
:102BC00070BD00000000214210B5074C0020C4F881
:102BD0009001052004F5C874FFF778FAFF20FFF78D
:102BE00075FA0121216010BD0000214210B5FFF7E8
:102BF000EBFFC007FBD110BD2DE9F05FC1F30B0661
:102C0000DFF88C800F0BC6F580548A468146154646
:102C1000A24200D8144639038B464FF480524046F6
:102C2000FFF788FF002006E0321818F80210FF298D
:102C300003D1401C80B2A042F6D3A04221D2384634
:102C4000FFF722FF002006E019F800208319401C3E
:102C500008F8032080B2A042F6D359464FF48052C0
:102C6000404600F027F8A5420FD0281BA144A244FB
:102C7000002685B24FF480547F1CA542CBD82C4649
:102C8000C9E7224651464846EBE7BDE8F09F000001
:102C9000FE00002010B5064C0020C4F8900106206C
:102CA00004F5C874FFF712FA0120206010BD00007F
:102CB000000021422DE9F0410746C8B2C0F58074FA
:102CC0000E461546A24200D814464FF4807822469C
:102CD0003146384600F00EF8A54208D0281B27449C
:102CE000264485B24446A542F1D82C46EFE7BDE81C
:102CF000F08100002DE9F04115460C460646FFF72D
:102D0000C9FF114F0020C7F890010220FFF7DEF93C
:102D1000C4F30740FFF7DAF9C4F30720FFF7D6F949
:102D2000E0B2FFF7D3F9002404E0305DFFF7CEF9FD
:102D3000641CA4B2AC42F8D30120C7F89001BDE8EE
:102D4000F041FFF753BF0000000021424FF4FA7436
:102D5000FEF77EFB204602F05BF8F9E71CB505495B
:102D60000420CDE900010023802203A1054802F0E0
:102D7000B5FD1CBD200000205744475F7461736B94
:102D8000000000004D2D00080FB4054B10B503A93D
:102D9000044A029800F038F910BC5DF814FB0000FA
:102DA000713900083C00002030B528B1144C031FD5
:102DB000002021680A4605E0084630BD9A4203D843
:102DC00010465268002AF9D1002800D041680BD083
:102DD0000468A3EB0005A54204D11B681C4403460C
:102DE000046002E0436000E023603AB11C68D51A39
:102DF000A54203D115682C441C6052685A6030BD4E
:102E0000DC0000202DE9F04782460F4C10480D4EA3
:102E10000E4F001B4FF0000820F007054FF001098E
:102E200000221146504600F0EDFD002802D1306826
:102E300010B10020BDE8F0873C60C4E90058C6F836
:102E40000090EDE7E00000200C670020DC0000208F
:102E5000086F002002E008C8121F08C1002AFAD13A
:102E600070477047002001E001C1121F002AFBD10A
:102E7000704700002DE9FF5F82B00021DDE90430DA
:102E8000020DDDF840B0034318D044F61050A2F212
:102E9000FF3242431514119801281FD0A5EB0B00F7
:102EA000401C5FEA000A4FF000064E4FDFF83891F1
:102EB000B046504615D5CAF1000413E0119801241C
:102EC0004AA3012801D16FEA0B010298119AC0E9C7
:102ED0000031C0E9024206B0BDE8F09FCBF100002E
:102EE000DFE704460021404A491842EB0450CDE98F
:102EF000001012E0E00707D032463B464046494604
:102F0000FDF7B7FE8046894632463B4610461946D5
:102F1000FDF7AFFE06460F466410002CEAD1DDE94E
:102F20000401DDE90023BAF1000F06DAFDF7A1FE86
:102F300042464B46FDF79DFE05E0FDF70CFF42467D
:102F40004B46FDF708FF04460E460022284BFDF7CE
:102F500013FD03D84FF0FF30014607E00022254B58
:102F600020463146FDF72AFCFDF770FF102409E0EA
:102F7000002C0ADB0A220023FDF72CFD039B3032D4
:102F80001A55641E50EA0102F2D1641C039AC4F17E
:102F900011031444119A012A03D0012208430DD1D0
:102FA0000AE0084304D000204FF0110B119072E7A3
:102FB000A3EB0B056D1E0DE05B4504DD4FF0000239
:102FC00005F1010504E003DA4FF00002A5F1010567
:102FD000002AECD002981199C0E90231C0E90045FD
:102FE00079E70000000014400000F03F30000000CE
:102FF0000000F0430000E03F30380A2801D20120F1
:1030000070470020704700002DE9FF4F95B09A46A9
:10301000884606460025EEE1252877D1002427467C
:10302000F94A0121039400E0044316F8013F203BD4
:1030300001FA03F01042F7D130782A2811D06FF04E
:103040002F033078A0F13002092A16D8039A44F0F1
:10305000020402EB820203EB42021044761C03904E
:10306000EFE758F8042B0392002A03DA504244F4A5
:103070000054039044F00204761C30782E2816D1B8
:1030800016F8010F44F004042A280DD06FF02F0227
:103090003078A0F13003092B09D807EB870302EB46
:1030A0004303C718761CF3E758F8047B761C307886
:1030B0006C280FD006DC4C2817D068280DD06A2861
:1030C00014D104E0742810D07A280FD10DE044F414
:1030D00000140AE044F4801401E044F440147278CF
:1030E000824202D104F58014761C761C3078662862
:1030F0000BD013DC582877D009DC002875D0452880
:10310000F6D04628F4D047281AD193E118E0632876
:1031100035D0642879D0652812D18BE1702873D01E
:1031200008DC6728F1D069286FD06E280DD06F2891
:1031300006D1ACE073282CD0752874D0782853D0F1
:103140005246179990476D1C54E1C4F3025002286F
:1031500009D003280DD0D8F8001004280DD00D6038
:1031600008F1040846E1D8F80010EA17C1E9005256
:10317000F6E7D8F800100D80F2E70D70F0E718F8C8
:10318000041B8DF8001000208DF80100EB46012093
:1031900003E058F804BB4FF0FF3061074FF0000127
:1031A00002D40DE009F101018946B9420FDA8145E7
:1031B000F8DB1BF809100029F4D108E009F101013E
:1031C00089468142FADB1BF809100029F6D10398E1
:1031D0005346A0EB090721463846179A00F080FABB
:1031E000284400EB090507E044E008E10DE01BF886
:1031F000010B524617999047B9F10109F7D253468E
:1032000021463846179AF2E039E00A21C4F3025207
:103210004FF0000B0091022A06D058F8040BC1179A
:10322000032A09D00AE023E008F1070020F0070292
:10323000F2E80201904605E000B2C117042A01D16C
:1032400040B2C117002906DA0A460021404261EB6C
:1032500002012D2202E0220504D52B228DF8042044
:10326000012203E0E20701D02022F7E7914657E070
:103270000A2100E010214FF0000B00910BE010211B
:103280004FF0000B44F004040827009103E00820ED
:103290004FF0000B0090C4F30252022A05D058F8F8
:1032A000040B0021032A08D008E008F1070020F0F1
:1032B0000702F2E80201904603E080B2042A00D13E
:1032C000C0B24FF0000922072AD53278702A07D001
:1032D000DDF800C08CF0100C5CEA0B0C05D00EE0A1
:1032E00040228DF80420012208E050EA010306D0B4
:1032F00030238DF804308DF8052002229146009B82
:1033000083F0080353EA0B030AD150EA010201D10A
:10331000620705D530228DF804204FF001097F1E89
:103320003278582A04D039A20C920CAA02920BE0EF
:103330003BA2F9E75B46009AFDF74CFB0C9B9B5CBC
:10334000029A521E0292137050EA0102F2D10298C0
:1033500004A9081A00F1200B600702D524F4803478
:1033600000E001275F4502DDA7EB0B0000E0002035
:1033700000EB0B01009003984944401A0390E003CE
:1033800006D453462146179A039800F0A9F905443C
:10339000002706E001A85246C05D179990476D1CB2
:1033A0007F1C4F45F6DBE0030CD553462146179AA8
:1033B000039800F095F9054404E03020524617992F
:1033C00090476D1C0099481E00900029F5DC08E02C
:1033D0000298029952460078491C02911799904729
:1033E0006D1CBBF10001ABF1010BF1DC5BE100F006
:1033F00065F90544761C307800287FF40DAE19B0CD
:103400002846BDE8F08F0000092801003031323332
:103410003435363738396162636465660000000010
:1034200030313233343536373839414243444546FA
:1034300000000000600700D4062708F1070020F014
:103440000700F0E80223804603F0004C5FEA0C001E
:1034500001D097A009E0200501D596A005E0E0077E
:1034600001D095A001E0AFF24C001390307823F02A
:10347000004365280CD006DC452809D046281DD01D
:1034800047287FD13BE0662818D067287AD136E0FC
:103490000021112F01DB112000E0781CCDE9000193
:1034A00004A90CA8FFF7E6FCDDE90D010C9A4FF02A
:1034B000000B07F10109109200914EE04FF000401F
:1034C0000097CDE9011004A90CA8FFF7D3FCDDE9B2
:1034D0000D020C9B0F994FF0000B91461093009238
:1034E00011B9791C00EB0109B7EB090003D4C0F155
:1034F000FF3B07F10109A9EB0700019042E0012F12
:1035000000DA01270021112F01DD112000E03846EB
:10351000CDE9000104A90CA8FFF7ACFCDDE90D0121
:103520000C9A00914FF0000BB946109221070FD46E
:10353000009A4A4503DA914601E0A9F10109B9F17F
:10354000010F05DD109AA9F10101515C3029F4D079
:10355000B84202DA10F1040F03DA0121CDE90110BB
:1035600010E0002803DC8344A9EB000102E0411CC9
:10357000494500DD8946A0EB0B00401C01904FF04F
:1035800000400290200705D40198484502DB4FF027
:10359000FF30019000208DF84B0002980DF14B0791
:1035A000B0F1004F25D002200C902B200D900298F6
:1035B00000280CDA404202902D200D9007E00A21ED
:1035C0000298FDF7F1F93031029007F8011D0C99CE
:1035D000481E0C900029F2DC02980028EFD1791ED9
:1035E0000D980870307800F0200040F0450007F892
:1035F000020D11A8C01BC01D02901398007800B1E5
:10360000012000EB0901019801EBE07102980144EF
:103610000398401A401E0390E00306D45346214607
:10362000179A039800F05CF805441398007818B1D5
:103630005246179990476D1CE00323D55346214607
:10364000179A039800F04CF805441BE0BBF1000FFB
:1036500007DB0098584504DD1098179910F80B0007
:1036600001E0179930205246904701980BF1010B69
:10367000401E05F10105019004D12E2052461799F4
:1036800090476D1CB9F10001A9F10109DEDC05E0EC
:1036900017F8010B5246179990476D1C0299481E66
:1036A00002900029F4DC53462146179A03989EE6BF
:1036B0002D0000002B000000200000002DE9F0414B
:1036C000044600251E461746880404D405E0394602
:1036D0002020B0476D1C641EF9D52846BDE8F08156
:1036E0002DE9F041044600251E469046C80301D549
:1036F000302700E02027880404D505E041463846FD
:10370000B0476D1C641EF9D52846BDE8F08110B5A0
:1037100030B1036823B1D0E90121914201D204E024
:10372000002010BD491C816020B1914202D25C5C36
:10373000202CF7D99142F4D1491E816010BD0000C0
:1037400070B504460F4E19E0A0892568C0050AD45B
:10375000A06820B1FFF7F4FFA089C00503D4206959
:1037600008B171688847A089800503D4206A08B130
:10377000716888477168204688472C46002CE3D141
:1037800070BD0000D00000200248D0E900100844BD
:1037900070470000C8000020002200F0F5B810B506
:1037A000016828208847040002D02821FCF749FD41
:1037B000204610BD0022114600F06EB82DE9F047FA
:1037C00088B00F4606469A4615461C216846FCF707
:1037D00038FD2F480024002E0460446055D08146F7
:1037E000E7B30096CDE90174D9E90212D9F81000C7
:1037F0000491CDE9052009F10800FFF7D0FF5FEA49
:1038000000082BD000986F4608B1029808B100203C
:103810000CE00198042808D903221EA10098FCF7A7
:103820004BFD10B90298C01C02903846FFF76FFF9D
:103830000146404600F04AFB68B1BAF1000F13D0D0
:103840006846FFF764FFDDE90101814203D2029976
:103850000098405C40B14046FFF772FFDDE901107F
:1038600088420AD204460BE01DB102990098084430
:103870002860404608B0BDE8F087081E00D0441E0E
:103880000DB130192860C9E900640020F2E700009A
:10389000C8000020EFBBBF0070B515460E460400FF
:1038A00009D0FCF7EBFC411C2B4632462046BDE814
:1038B0007040FFF783BF002070BD000010B50420EA
:1038C000FEF7DAFC0C480D490D4A0068B0FBF1F335
:1038D000B0FBF1F14FF47A70414313700120508036
:1038E0004FF0E020026942F0020202614161016989
:1038F00041F00101016110BD0400002040420F00B1
:103900002600002070B5044602F014F801280CD0FF
:10391000094D6888844203D3B4FBF0F001F078FAD3
:103920006888B4FBF0F100FB11444FF47A706043F7
:10393000BDE8704000F002B82600002070B54FF0DE
:10394000E02500216C69094AAB6912785043AA69E5
:103950009A42FCD002D2A3EB020302E0A4EB0206DF
:103960003344194413468142F1D370BD2600002030
:1039700004490A885206FCD5024AC1B2121D1180C0
:1039800070470000003801402DE9F0418846A8B397
:10399000B8F1000F33D085680AB90AE02D686DB31D
:1039A000296A59B34046FCF770FC0028F6D120E0A4
:1039B0002D681DB32E6A5FEA0804F9D0002EF7D0F7
:1039C000B44218D002E098B1641C761C2078FCF751
:1039D00019FC07463078FCF715FC87422078F2D0B6
:1039E000FCF710FC04463078FCF70CFC8442DFD175
:1039F00025B1286A10B12846BDE8F081FFE7002014
:103A0000FAE700002DE9F0410B3020F00706104DD9
:103A100019E02068B04215D3B0420AD9871B201D97
:103A2000D4F80480FCF7F4FBA019C0E90078286002
:103A300004E060682860201DFCF7EAFB201D26607A
:103A4000BDE8F081251D2C68002CE2D10020F7E7AD
:103A5000DC00002010B54FF44070FDF769FDFFF762
:103A60003FF8FFF72BFFFEF7B7F84FF41654204648
:103A7000FEF734FF2046FEF789FFFDF733FC0021F7
:103A800040F2E730FEF748FC40F271210420FDF7D8
:103A9000CBFCFEF7D7FB002010BD2DE9F041074617
:103AA0000026C8680C463546B0F57A7F5BD2401CCC
:103AB000E0602168A068095C5B2954D1401CA060CB
:103AC0002046FFF724FE4CB1D4E90110884203D20E
:103AD0002268125C5D2A33D0884203D3A068401E5E
:103AE000A06040E0401E04F11008A0604046FFF7CF
:103AF00056FE98B30EB3286045600546A068401C8A
:103B0000A0602046FFF703FE2146284600F0DEF9BC
:103B100030B32046FFF7FBFD14B3D4E9011088420F
:103B200003D22168095C2C29E0D06268904217D248
:103B30002168085C5D2813D102E006463546DDE7C2
:103B4000E068401EE06006B175602020C7E90260B1
:103B5000A068401CA0600120BDE8F081FFE716B11D
:103B60003046FFF7EDFD0020F6E7034610B50020D4
:103B70000246995CA1F13004092C01D830380AE0E2
:103B8000A1F14104052C01D8373804E0A1F161040A
:103B9000052C08D857380844032A00D20001521CCB
:103BA000042AE6D310BD002010BD00002DE9F0412D
:103BB00092B04FF000070C0005464FF02E063B4632
:103BC00010973CD02068D0B3694627E022681044A3
:103BD0001A5C342A1BD00ADCA2F12B00092823D25C
:103BE000DFE800F015221517221515151500382AE3
:103BF0000DD006DC352A0AD0362A08D0372A13D150
:103C000005E0392A03D0452A01D0652A0CD1CA54CF
:103C100000E0CE545B1C3F2B06D22CB1A068D4F838
:103C200004C0C2186245D1D38846CF54404610A97B
:103C300000F0EEFE0F4610990646884503D100209D
:103C400012B0BDE8F081124A124B30463946C5E940
:103C50000667FCF791FE02D86FF000400DE00022ED
:103C60000D4B30463946FCF76FFE02D84FF000404E
:103C700003E030463946FCF748FE68610820E860FA
:103C8000109AA168A2EB08000844A0600120D7E7C1
:103C90000000C0FFFFFFDF410000E0C12DE9F0415F
:103CA00007460026C8680C463546B0F57A7F78D2BC
:103CB000401CE060002C74D0D4E90110884270D21E
:103CC0002168095C7B296CD1401CA0602046FFF76D
:103CD0001EFDD4E90110884203D22268125C7D2ABD
:103CE0004CD08842A0F10100A0605AD204F1100823
:103CF0004046FFF754FDE8B3F6B12860456005463D
:103D0000A068401CA0602046FFF701FD2146284620
:103D100000F049F878B32046FFF7F9FC28692862DB
:103D2000002028613CB3D4E90110884236D22168D2
:103D3000095C3A2932D102E006463546E0E7401CEC
:103D4000A0602046FFF7E3FC2146284600F0BEF8BD
:103D500088B12046FFF7DBFCD4E90110884203D28A
:103D60002168095C2C29C3D06268904216D2216870
:103D7000085C01E011E011E07D280FD1E068401EF1
:103D8000E06006B175604020C7E90260A068401C91
:103D9000A0600120BDE8F08103E016B13046FFF7D6
:103DA000CFFC0020F6E72DE9F84F8146D1F80880D6
:103DB00008684FF0000ACDF800A0D1F800C000EB71
:103DC0000804651C1CF80800641C0E46574622288F
:103DD00076D10021706807E05C2B04D1521C82422E
:103DE0006AD2491C641C641CA4EB0C02824202D2FD
:103DF0002378222BF0D1A4EB0C0282425CD22078F3
:103E0000222859D10CEB0800201A401A3169401CB5
:103E10008847070054D000973DE029785C2905D0F9
:103E200000986D1C00F8011B009034E00221601B1B
:103E3000012841DB6878662814D008DC22281DD0D0
:103E40002F281BD05C2819D0622835D108E06E28B5
:103E50000ED072280ED074280ED075282CD112E006
:103E6000082200E00C22009800F8012B009011E0DD
:103E70000A22F8E70D22F6E70922F4E7009A02F891
:103E8000010B009206E06A462146284600F0CEFD6E
:103E9000010011D00D44A542BFD3009981F800A0C4
:103EA0001021C9E903173068201A401CB0600120B6
:103EB000BDE8F88F04E0FFE717B17169384688471D
:103EC00015B13068281AB0600020F1E770B50C0019
:103ED00005465ED0216800295BD0A0686368021D9A
:103EE0009A4205D80844042231A1FCF7E5F978B3D9
:103EF000A0686268411D0126914206D8216805220A
:103F000008442DA1FCF7D8F928B3A0686268011D08
:103F1000914206D821680422084429A1FCF7CCF973
:103F2000E8B1D4E90101814203D22268525C222A1D
:103F30001DD0814221D22268525C2D2A02D0303A13
:103F4000092A1AD821462846BDE87040FFF72EBE40
:103F50000420E86006E0EE60A068401D04E0022056
:103F60006E61E860A068001DA060012070BD214660
:103F70002846BDE87040FFF716BF814203D2226891
:103F8000525C5B2A07D0814203D22068405C7B28C8
:103F900007D0002070BD21462846BDE87040FFF7DD
:103FA0007CBD21462846BDE87040FFF777BE000083
:103FB0006E756C6C0000000066616C73650000003B
:103FC00074727565000000002DE9F041184E0F462F
:103FD0000446F5683068001D00F090FD38B930687F
:103FE00090F82C1001208840316981433161601CB8
:103FF00007D137B13168BDE8F0410E48091D00F026
:10400000B5BD30682C44AC424460316805D2B06B19
:10401000BDE8F041091D00F091BD706B091D00F075
:104020008DFDB06A844200D2B462BDE8F081000028
:1040300054000020CC1600202DE9F041054600F088
:10404000A1FD2D4EB068401CB06030682B4F10B100
:10405000706930B32BE03560B068012827D10024A7
:1040600004EB840007EB800000F05AFD641C202C58
:10407000F6D3234800F054FD2148143000F050FDE1
:104080001F48283000F04CFD1D483C3000F048FD32
:104090001B48503000F044FD194870631430B06381
:1040A00005E03068E96AC06A884200D83560706A05
:1040B0000121401C70626864E86A326981401143E2
:1040C000316100EB800007EB8000291D00F04EFD00
:1040D00000F094FD706900280CD03068E96AC06A6D
:1040E000884207D207494FF080500860BFF34F8FD6
:1040F000BFF36F8FBDE8F08154000020FC13002057
:104100007C16002004ED00E010B500F03BFD0E4CE5
:104110002068A0B90D4800F003FD0C48143000F0F1
:10412000FFFC0A48E06014302061002210210520C5
:1041300001F0B0F8206010B105A100F035FEBDE837
:10414000104000F05BBD000090000020E016002051
:10415000546D72510000000070B5124E124D1CE0FB
:1041600001F000F8306820B1002401F011FDA4B97D
:1041700001E00124F9E700F005FDF068C468201DA6
:1041800000F0BCFCA868401EA8606868401E68601B
:1041900000F034FD204600F052F868680028DFD1B6
:1041A00070BD0000B81600205400002030B4026C2E
:1041B0000B46002A0BD0C1681144C1604468A1427B
:1041C00001D30168C16030BC1846FCF721B830BC8F
:1041D00070472DE9F041856B174604460026026CB6
:1041E00082B1C7B1E068FCF713F8E168206C091AE6
:1041F000E1602268914202D26168081AE060022FF1
:1042000016D017E02068A8B9606801F01BFC0646CC
:10421000002060600EE0A068FBF7FAFF216CA06848
:104220000844A0606168884204D32068A06001E06F
:1042300005B16D1E6D1CA5633046BDE8F08110B55B
:104240000446006B00F00CFD2046BDE8104000F075
:1042500007BD000010484FF4A041420706D0C01D22
:104260000D4920F00700411AC1F5A0410B4A002377
:104270000144C2E900030839103A21F00701116036
:104280004B600B600B1AC0E9001393604FF00040C5
:104290005360D0607047000008170020B400002071
:1042A000074E4FF08054074DFFF756FF3068012846
:1042B000FAD92C60BFF34F8FBFF36F8FF4E7000084
:1042C000FC13002004ED00E02DE9F047DDE909844E
:1042D0000E461746824691009946089DA522206BFE
:1042E000FBF7A8FF6FF00301206B01EB8701084487
:1042F00020F00707780705D040F22B3219A11EA045
:10430000FEF742FD00202218315C82F83410315C47
:1043100011B1401C1028F6D3002684F84360202DEC
:1043200000D31F25E562C4E91356201D00F003FCED
:1043300004F1180000F0FFFB2461C5F12000646265
:10434000A061666584F858604A465146384600F0D8
:1043500003FB2060B8F1000F01D0C8F80040BDE8B1
:10436000F08700002E2E5C4672656552544F535CF8
:104370007461736B732E63004572726F723A2573AA
:104380002C25640D0A00000030B5114900E01146EB
:104390000A688242FBD34B685C18844203D14068B0
:1043A00018444860084643681C18944209D1084CD8
:1043B000103C2468A24209D052681A4442600A683C
:1043C00012680260814200D0086030BD0460F9E7E5
:1043D000B400002070B5002441600B4D0061914293
:1043E00006D8D11A8269914206D2011D286907E0D8
:1043F0009A4203D2994201D3012403E0011DE868E7
:1044000000F09CFB204670BD9000002010B50446D3
:1044100000F0B8FBA06B20B1002400F0EFFB2046B9
:1044200010BD0124F9E700002DE9F34100980F4683
:104430000026846C2CB940F6CE1216A11AA0FEF705
:10444000A3FCA06BE16B884205D340F6CF1211A10B
:1044500015A0FEF799FCA06BE16B88420CD294F991
:1044600045503A4669462046FFF7B3FE0646681CAB
:1044700005D06D1C84F845503046BDE8FC81606A6B
:104480000028F9D004F1240001F036FB0028F3D015
:104490000126F1E72E2E5C4672656552544F535C3F
:1044A00071756575652E63004572726F723A25737A
:1044B0002C25640D0A000000F8B5054614480E4688
:1044C000C068C068C468201D00F018FBE0690128BE
:1044D00017D1A0692B46411932462046FFF77AFFD3
:1044E00078B100200346014600902A46204601F09C
:1044F00035FC30B907494FF4027201F11800FEF79C
:1045000043FC616A01B02046BDE8F0400847000066
:1045100090000020C05C000870B586B02F4E53E0BC
:104520000198002806DADDE90301029A9047019814
:10453000002849DB039C606910B1201D00F0DEFA01
:1045400005A800F0A7F8054601980A283CD2DFE844
:1045500000F00505053B273805053B270298A169B2
:10456000034601442A462046FFF734FF00282BD09B
:10457000616A20468847E069012825D10020009023
:104580000298A169002342181946204601F0E6FB73
:10459000D0B940F2213212A117A0FEF7F5FB13E0CB
:1045A0000298A06128B94FF44E720DA112A0FEF737
:1045B000EBFBA0692B4641191A462046FFF70AFF7C
:1045C00002E0204600F04CFB00231A4601A93068A7
:1045D00000F09CFE0028A3D106B070BD9000002022
:1045E0002E2E5C4672656552544F535C74696D653E
:1045F00072732E63000000004572726F723A257369
:104600002C25640D0A000000F8B50D46064600F0A2
:10461000A9FD684600F03EF80446009810B101F08C
:10462000B7FAF8BD1148ADB101690968D9B10025E3
:10463000311B2A46006800F0C9FB01F0A9FA0028E6
:10464000EFD10B494FF080500860BFF34F8FBFF39D
:104650006F8FF8BDA642EBD801F09AFA214630469A
:10466000FFF72AFFF8BD0125E2E7000090000020D7
:1046700004ED00E00648416B096829B1416BC96847
:10468000C9684968816270474FF0FF31FAE700005E
:104690005400002070B5054601F05AF9064E044654
:1046A000B068844203D200F009F8012000E0002045
:1046B00028602046B46070BD90000020F8B5184E08
:1046C00026E0C068C4680568201D00F017FA616A1A
:1046D00020468847E06901281AD1A0692844A842E9
:1046E00006D924616060211DF06800F027FA0FE010
:1046F00000200346014600902A46204601F02EFB8A
:1047000030B9084940F2923201F11800FEF73CFB43
:10471000F06801680029D4D13169C6E90310F8BDF9
:1047200090000020C05C000808484068401C04D08D
:10473000F42207A111A0FEF727FB502080F3118877
:10474000BFF34F8FBFF36F8FFEE70000BC00002068
:104750002E2E5C4672656552544F535C706F7274B6
:1047600061626C655C525644535C41524D5F434DEF
:10477000335C706F72742E63000000004572726FBC
:10478000723A25732C25640D0A000000084CE0687D
:10479000016839B1002139B10020FFF735FFFFF77B
:1047A000BBFEF4E70121F6E7C0680068F5E700000A
:1047B000900000202DE9F041044600F0E3F994F95F
:1047C000455004F1240610E0A06C20B100212046E1
:1047D000FFF72AFE04E0606A48B1304601F08CF928
:1047E00008B100F0B1FB6D1E6DB2002DECDC4FF096
:1047F000FF3684F8456000F001FA00F0C3F994F93F
:10480000445004F1100709E0206948B1384601F02E
:1048100073F908B100F098FB6D1E6DB2002DF3DC4A
:1048200084F84460BDE8F04100F0E8B92DE9F041BA
:104830000546002600F096FC324F386808B9FFF7AD
:1048400009FDF86805424FD1002D4DD008356807A5
:104850000BD005F00700C0F108000544680704D03C
:10486000BF2229A132A0FEF78FFA002D3CD0786834
:10487000854239D8234910310846046801E02146B1
:1048800004466068A84202D220680028F7D1386840
:10489000B846844228D00E682068086060680836F0
:1048A000401B10280ED96719780704D0EC2216A1F6
:1048B0001FA0FEF769FA6068401B786038466560A3
:1048C000FFF762FD6168D8F804004246401AC8F854
:1048D0000400D8F80830984200D29060D8F80C0054
:1048E00001430020C4E9000101F052F9700705D02E
:1048F0004FF4967204A10EA0FEF746FA3046BDE8CA
:10490000F0810000A40000202E2E5C4672656552E6
:10491000544F535C706F727461626C655C4D656D71
:104920004D616E675C686561705F342E63000000E6
:104930004572726F723A25732C25640D0A000000CF
:104940000449086818B10868026D521C02650868BD
:10495000704700005400002010B5031F4FF0807412
:104960001C601B1F21F001011960191F024B0B6015
:10497000143940380A6010BD294700082DE9F04776
:1049800004008A4616D054F8047CD4F800903E1FE8
:10499000564500D956462046FEF706FA0546884693
:1049A000324621465046FFF72DF840B1C0F800903E
:1049B000BDE8F087BDE8F0470846FEF723BA44E9B2
:1049C000017955B129686A18211F8A4202D9611BF1
:1049D000091F2960C5F80480EAE7024AC2F800808E
:1049E000E6E70000DC00002010B500F0CBF8FDF792
:1049F00011FBFEF723F8FEF7B1F90448006800F058
:104A00003DFABDE8104000F0F9B8000000000020B9
:104A100000B583B00A460021CDE900110146684681
:104A2000FCF797F8DDE9000103B000BD2DE9F04780
:104A300007460026C81B1446894606285CDBB81CBE
:104A4000FFF793F80546A0F55C404FF4806188427B
:104A500052D3A5F558408A4650451AD2B81DA9EB45
:104A600000014FF00C08062946DB01785C2943D190
:104A70004178752940D1801CFFF777F8A0F55C419B
:104A8000514539D2C5F3090161F39F2000F580300B
:104A900002E04FF006082846802801D2012210E0EB
:104AA000B0F5006F02D20222C0260AE0B0F5803FC6
:104AB00002D20322E02604E0B0F5881F1CD20422B3
:104AC000F026511E07E000F0BF03256843F0800385
:104AD00080096B54491E11F0FF01F4D1012A01D95C
:104AE000304301E000F07F00216808702068104426
:104AF00020604046BDE8F0870020FBE7D0E90132A6
:104B000001699A60D0E901235A604A68824201D162
:104B100082684A60002202610868401E086070478F
:104B200000F108014FF0FF32C0E90112C1600161DC
:104B300000210160704700210161704730B50C68A9
:104B4000621C02D000F1080202E0026904E01A4689
:104B500053681D68A542FAD953684B6099608A6012
:104B6000516008610168491C016030BD42684A60BB
:104B700093688B6093685960916008610168491C73
:104B800001607047502080F31188BFF34F8FBFF34F
:104B90006F8F09494868401C486001280AD10748BE
:104BA000006810F0FF0F05D04FF4BD7204A10FA0F4
:104BB000FEF7EAB870470000BC00002004ED00E0FA
:104BC0002E2E5C4672656552544F535C706F727442
:104BD00061626C655C525644535C41524D5F434D7B
:104BE000335C706F72742E63000000004572726F48
:104BF000723A25732C25640D0A00000010B5084C8C
:104C0000606828B940F2811206A111A0FEF7BCF835
:104C10006068401E606001D180F3118810BD000003
:104C2000BC0000202E2E5C4672656552544F535CCA
:104C3000706F727461626C655C525644535C415291
:104C40004D5F434D335C706F72742E630000000043
:104C50004572726F723A25732C25640D0A000000AC
:104C600070B500282AD0164DA0F108046068E968E4
:104C7000084205D14FF4A07212A11CA0FEF784F8DF
:104C8000206828B140F241120EA118A0FEF77CF86E
:104C90006068E968084211D02268002A0ED1884372
:104CA000606000F05FFA60686968084468602046E8
:104CB000FFF76AFBBDE8704000F06ABF70BD0000FE
:104CC000A40000202E2E5C4672656552544F535C42
:104CD000706F727461626C655C4D656D4D616E677D
:104CE0005C686561705F342E630000004572726F0E
:104CF000723A25732C25640D0A00000006484FF413
:104D00007A710068B0FBF1F14FF0E020491E41617B
:104D100007210161704700000400002010B5FBF777
:104D20005BFA104C10280CD300F1E02090F8F0034F
:104D30002178884205D24FF42A720BA115A0FEF704
:104D400023F818480068A16800F4E060884207D999
:104D5000BDE810404FF42E7203A10EA0FEF714B868
:104D600010BD0000BC0000202E2E5C46726565520E
:104D7000544F535C706F727461626C655C52564440
:104D8000535C41524D5F434D335C706F72742E63C0
:104D9000000000004572726F723A25732C25640D75
:104DA0000A0000000CED00E010B5074B002253F89C
:104DB00032401CB1521C082AF9D310BD43F83210FE
:104DC00003EBC201486010BDBC13002070B515464E
:104DD0000E460446FFF7D6FE94F944100020491C05
:104DE00001D184F8440094F94510491C01D184F89C
:104DF0004500FFF703FFA06B28B92A46314604F1AE
:104E0000240000F0D1F82046BDE87040FFF7D2BC86
:104E100010B5040012D00E49096B29B140F2CF42FF
:104E20000CA111A0FDF7B0FF00F09CF90021204675
:104E3000FFF7CAF800F0ACFE002807D10E494FF08A
:104E400080500860BFF34F8FBFF36F8F10BD00001D
:104E5000540000202E2E5C4672656552544F535C00
:104E60007461736B732E63004572726F723A2573AF
:104E70002C25640D0A00000004ED00E070B5044626
:104E8000FFF780FE234D04B92C68201DFFF736FE86
:104E900058B9E06A204A00EB800152F8211021B98C
:104EA00001218140286988432861A06A18B104F172
:104EB0001800FFF723FE686A401C68622868844275
:104EC00007D1211D1548FFF751FE6868401C686036
:104ED00007E0A868401EA8602046FFF7B0F9FFF77A
:104EE000C9FBFFF78BFE6869002812D0286884424E
:104EF0000FD1286B28B140F2654209A10DA0FDF742
:104F000043FF10494FF080500860BFF34F8FBFF34D
:104F10006F8F70BD54000020FC130020B8160020D5
:104F20002E2E5C4672656552544F535C7461736BF0
:104F3000732E63004572726F723A25732C25640DCF
:104F40000A00000004ED00E001490120C86170473B
:104F50005400002070B50D46040005D140F606321D
:104F600007A10CA0FDF710FF0E480168204618317C
:104F7000FFF7E4FD2846BDE870400121FFF724B8A3
:104F80002E2E5C4672656552544F535C7461736B90
:104F9000732E63004572726F723A25732C25640D6F
:104FA0000A0000005400002070B514460E460500AB
:104FB00005D140F6313209A10DA0FDF7E5FE1048FC
:104FC000016828461831FFF7D1FD0CB14FF0FF36CC
:104FD00021463046BDE87040FEF7F6BF2E2E5C46F7
:104FE00072656552544F535C7461736B732E63002A
:104FF0004572726F723A25732C25640D0A00000009
:105000005400002070B5040039D01D4DE06A2968B5
:10501000C96A884233D2A069002804DB2868C06AC4
:10502000C0F12000A061E06A164E00EB80006169CB
:1050300006EB800081421FD1201DFFF75FFD01219B
:1050400050B9E06A00EB800256F8222022B92A69A2
:1050500001FA00F082432A612868C06AE0622A6986
:1050600081401143296100EB800006EB8000211D87
:10507000BDE87040FFF77ABD2868C06AE06270BD85
:1050800054000020FC13002010B5040005D140F6A8
:10509000C13205A109A0FDF777FE0C48016A216025
:1050A000C068606010BD00002E2E5C4672656552BF
:1050B000544F535C7461736B732E63004572726F4F
:1050C000723A25732C25640D0A000000540000205C
:1050D0001CB517480024CDE900402346822215A1C3
:1050E000164800F0FBFB012803D100F0FDFD01286C
:1050F0000AD0401C1BD102B040F28472BDE81040BF
:105100000FA114A0FDF740BE502080F31188BFF31B
:105110004F8FBFF36F8F06484FF0FF312C388162FD
:1051200001214161C460BDE81C4000F061B81CBDB4
:105130008000002049444C4500000000A1420008C6
:105140002E2E5C4672656552544F535C7461736BCE
:10515000732E63004572726F723A25732C25640DAD
:105160000A0000000248016B491C016370470000FF
:105170005400002070B5134D286B10B10120E86178
:1051800070BD0020E86128690F4EB0FA80F0C0F1D0
:105190001F0000EB800456F8240028B940F6F622E0
:1051A0000AA10FA0FDF7F0FD06EB840000F1080254
:1051B000416849684160914201D149684160C868CD
:1051C000286070BD54000020FC1300202E2E5C4689
:1051D00072656552544F535C7461736B732E630038
:1051E0004572726F723A25732C25640D0A00000017
:1051F0001CB51A4908780190FF20087008788DF8CE
:1052000000009DF80000164A00F0500010700720C2
:10521000906007E09068401E90609DF8000040009C
:105220008DF800009DF800000006F3D4107A00020B
:1052300000F4E0609060019808700A48016841F449
:1052400070010160016841F070410160FFF756FD97
:1052500000205060FAF78AFF00201CBD00E400E047
:10526000BC00002020ED00E010B5502080F3118834
:10527000BFF34F8FBFF36F8F00F070FB18B104497D
:105280004FF080500860002080F3118810BD0000AE
:1052900004ED00E02DE9F04117460E46050005D16A
:1052A0004FF4C47210A115A0FDF76EFDBEB105FB51
:1052B00006F05430FFF7BAFA04000ED004F154009F
:1052C0007EB12060C4E90F562046012100F0E0F8CD
:1052D00084F8507000212046A164BDE8F0810020D0
:1052E000E7E72460EEE700002E2E5C46726565520B
:1052F000544F535C71756575652E63004572726F0E
:10530000723A25732C25640D0A0000002DE9FF4F29
:1053100083B09B468A4604004FF0000605D140F258
:10532000DC4251A155A0FDF72FFDBAF1000F07D1C6
:10533000206C28B140F2DD424BA150A0FDF724FDC6
:1053400000F0F8FA38B9059828B14FF49C6246A1EC
:105350004AA0FDF719FD4FF000094FF08057DFF824
:105360002C81FFF70FFCA56B45B351462046E6683C
:10537000FEF71CFFBBF1000F13D0E660606A50B16E
:1053800004F1240000F0B8FB28B1C8F80070BFF3A6
:105390004F8FBFF36F8FFFF731FC012007B0BDE8DF
:1053A000F08F6D1EA563206810B9FFF7C9FA606021
:1053B00020690028EFD004F11000E3E7059808B158
:1053C0001EB106E0FFF71AFC27E06846FFF75CFE17
:1053D0000126FFF713FCFFF7C5FEFFF7D3FB94F997
:1053E0004400401C01D184F8449094F94500401CCD
:1053F00001D184F84590FFF701FC05A9684600F04B
:1054000029FA002820460AD0FFF7D4F900F0C0FBA3
:105410002046FEF7FBFF0028A3D00020BEE7FEF7E2
:10542000F5FFD8B1206830B9FFF7ACFB6068FFF733
:10543000E9FDFFF7E3FB04F124000599FFF78AFD7E
:105440002046FFF7B7F900F0A3FB002889D1C8F880
:105450000070BFF34F8FBFF36F8F82E72046FFF7D7
:10546000A9F900F095FB7CE72E2E5C46726565522B
:10547000544F535C71756575652E63004572726F8C
:10548000723A25732C25640D0A00000004ED00E03B
:1054900070B50D46040005D140F21B121CA121A0DD
:1054A000FDF772FCFFF76EFBD4E90F20216802FBC9
:1054B000001161600021A1632168A1600A46D4E95E
:1054C0000F01401E00FB0121E16021464FF0FF303B
:1054D00001F8440F487004F110004DB1FFF720FBB4
:1054E00004F12400FFF71CFBFFF788FB012070BDCF
:1054F00021690029F8D000F0FFFA0028F4D00D4906
:105500004FF080500860BFF34F8FBFF36F8FEBE712
:105510002E2E5C4672656552544F535C71756575ED
:10552000652E63004572726F723A25732C25640DE7
:105530000A00000004ED00E02DE9FF4F83B099461A
:105540008B4604004FF0000605D140F2D92252A14B
:1055500056A0FDF719FCBBF1000F07D1206C28B154
:1055600040F2DA224CA151A0FDF70EFCB9F1020F76
:1055700008D1E06B012805D040F2DB2246A14BA008
:10558000FDF702FC00F0D6F938B9059828B140F2D1
:10559000DE2241A145A0FDF7F7FB4FF0000A4FF0D6
:1055A0008057DFF81881FFF7EDFAA06BE16B8842B6
:1055B00006D3B9F1020F03D0059800B316B325E066
:1055C0004A4659462046FEF704FEA16C21B14946E1
:1055D0002046FEF729FF05E0616A19B104F12400B5
:1055E00000F08AFA28B1C8F80070BFF34F8FBFF3FC
:1055F0006F8FFFF703FB012007B0BDE8F08FFFF7C7
:10560000FDFA21E06846FFF73FFD0126FFF7F6FAB5
:10561000FFF7A8FDFFF7B6FA94F94400401C01D14A
:1056200084F844A094F94500401C01D184F845A0B9
:10563000FFF7E4FA05A9684600F00CF930B12046FE
:10564000FFF7B8F800F0A4FA0020D5E7FFF79AFAC0
:10565000A06BE16B884201D1012500E00025FFF736
:10566000CDFA95B104F110000599FFF773FC2046BF
:10567000FFF7A0F800F08CFA002894D1C8F8007069
:10568000BFF34F8FBFF36F8F8DE72046FFF792F880
:1056900000F07EFA87E700002E2E5C4672656552A8
:1056A000544F535C71756575652E63004572726F5A
:1056B000723A25732C25640D0A00000004ED00E009
:1056C0002DE9F047984615468946040005D140F279
:1056D0009F322AA12EA0FDF757FBB9F1000F07D189
:1056E000206C28B14FF4687224A129A0FDF74CFB6F
:1056F000B8F1020F08D1E06B012805D040F2A132C9
:105700001EA123A0FDF740FBFFF708FB5020EFF39D
:10571000118780F31188BFF34F8FBFF36F8FA06B9A
:10572000E16B884207D3B8F1020F04D0002087F361
:105730001188BDE8F08794F9456042464946204605
:10574000FEF747FD701C04D0761C84F845600120EC
:10575000EDE7A06C012620B141462046FEF764FE2D
:1057600006E0606A0028F2D004F1240000F0C4F9D9
:105770000028ECD0002DEAD02E60E8E72E2E5C4603
:1057800072656552544F535C71756575652E630083
:105790004572726F723A25732C25640D0A00000061
:1057A0002DE9F04790468946040005D14FF4B462D4
:1057B0001FA124A0FDF7E8FAB9F1000F07D1206C72
:1057C00028B140F2A1521AA11EA0FDF7DDFAFFF7A1
:1057D000A5FA5020EFF3118780F31188BFF34F8FA4
:1057E000BFF36F8FA66BF6B194F94450494620463B
:1057F000FEF7DCFC761EA663681C04D06D1C84F8E2
:105800004450012010E020690028FAD004F1100073
:1058100000F072F90028F4D0B8F1000FF1D00121A6
:10582000C8F80010EDE7002087F31188BDE8F08785
:105830002E2E5C4672656552544F535C71756575CA
:10584000652E63004572726F723A25732C25640DC4
:105850000A00000070B50D46040005D140F6CB32B9
:1058600014A119A0FDF790FA2DB940F6CC3211A180
:1058700015A0FDF789FAFFF785F9174AD06829685E
:105880004B1C0FD02368126A934202D06268824296
:105890000AD96268801A884206D2081A286020460F
:1058A000FFF7F2FB002400E00124FFF7A7F92046F0
:1058B00070BD00002E2E5C4672656552544F535CDD
:1058C0007461736B732E63004572726F723A257345
:1058D0002C25640D0A000000540000202DE9FF5F14
:1058E0008346DDE90E87994616468A469000FEF704
:1058F0009DFF05001AD05C20FEF798FF040012D02F
:1059000025630021CDE90241CDE900874B463246AF
:1059100051465846FEF7D8FC2046FEF78DFB012085
:1059200004B0BDE8F09F2846FFF79AF94FF0FF302A
:10593000F6E700000548416919B1006B18B1002075
:10594000704701207047022070470000540000207B
:105950000148C06870470000540000202DE9F04164
:105960002D4F0026386B40B1B869401CB861F8690A
:1059700000B101263046BDE8F081FD686D1CFD6078
:1059800011D1786B006828B140F6D91223A128A064
:10599000FDF7FAF9786BB96B7963B863386A401C24
:1059A0003862FEF767FEB86ADFF89480854209D353
:1059B000786B006880B1786BC068C46860688542A5
:1059C0000DD2B8623868C06A00EB800158F8210037
:1059D0000128CCD90126CAE74FF0FF30F1E7201D9E
:1059E000FFF78CF8A06A18B104F11800FFF786F8E9
:1059F000E06A01213A6981401143396100EB80017D
:105A000008EB8100211DFFF7B1F8E06A3968C96A27
:105A10008842CDD30126CBE7540000202E2E5C46D1
:105A200072656552544F535C7461736B732E6300DF
:105A30004572726F723A25732C25640D0A000000BE
:105A4000FC13002070B504004FF000063CD01F4D41
:105A50002868844205D040F6C7621DA121A0FDF749
:105A600093F9206D28B940F6C96219A11DA0FDF770
:105A70008BF9206D401E2065E26CE16A914223D0D3
:105A800010BB201DFFF73AF81A49012250B9E06A0D
:105A900000EB800351F8233023B92B6902FA00F0A0
:105AA00083432B61E06CE062C0F12000A061E06AFA
:105AB0002B6982401A432A6100EB800001EB8000D1
:105AC000211DFFF753F80126304670BD5400002019
:105AD0002E2E5C4672656552544F535C7461736B35
